:10017400000080004000200010000800040002007D
:10018400040008001000200040008000000000006F
:10019400202054494D45523A2030363520534543AA
:1001A40000202053504545443A20323030205250EC
:1001B4004D0020205455524E203A204343570020EE
:1001C40020434F554E543A203030002043572000EE
:1001D4002043435700303132333435363738390011
:08040200C2A5D2A68F807F0580
:03040A00DFFE22F0
:1003AC00AE07AF061EEF600C7FF512040A7FF51244
:0503BC00040A80EE229E
:1003D600C2A4D2A5D2A67580FFE58020E7FBC2A6FF
:0103E60022F4
:0F03E7001203D6C2A4120402C2A67F0502040AA2
:0603C1003EF583E493FF0A
:0F03C7001203D6D2A4120402C2A67F0502040AB2
:1002D1007F281203ACD2A17F011203AC7F3012033D
:1002E100E77F3212040A7F301203E77F1412040AF7
:1002F1007F0C1203E77F3212040A7F011203E77FAA
:0E0301000F1203AC7F061203E77F3202040ADC
:10030F007F301203E77F401203E7E4FDFCED25E0A9
:10031F00FFEC33FE74742FF58274011203C1ED25C7
:10032F00E0FFEC33FE74752FF58274011203C10DDB
:0A033F00BD00010CED64104C70D3FA
:010349002291
:10034A00AE07ED24FE600F146011146013240370CD
:10035A0016EE2480800DEE24908008EE2488800317
:10036A00EE2498FF1203E7E4FF1203C7E4FF020337
:01037A00C7BB
:03028F000DE4FF7C
:10029200AE078B828A83ED24FE600F146011146016
:1002A2001324037016EE2480800DEE24908008EE55
:1002B20024888003EE2498FF1203E7E493FFD3948B
:0F02C20000400B1203C7A37F3212040A80ED2203
:0A040D007F011203E77F0F0203AC2A
:10037B0012040D7A017B947D01E4FF1202927A0143
:10038B007BA512028F7A017BB612028F7A017BC397
:10039B000DE4FF120292E50A540304FDE4FF02038D
:0103AB004A07
:0200EF008D136F
:1000F100AB07AA067C007D6412023A8F147C007D56
:1001010064AF03AE0212023A7E007F0ACFCDCFCE9A
:10011100CCCE12023A8F15AE02AF037C007D641281
:10012100023A7E007F0ACFCDCFCECCCE12023A8DDD
:1001310016E51324FE600E14600F14601024037082
:10014100117F84800A7F9480067F8C80027F9C12BD
:1001510003E79001D4E493FF1203C7E5149001D99A
:1001610093FF1203C7E51593FF1203C7E51693FF2B
:030171000203C7BF
:1001E400EF601AE4FCFDED9001D493FE740D2DF83C
:1001F400A6060DBD00010CED64044C70E9EF701906
:10020400FCFDED9001CF93FF740D2DF8A6070DBDF5
:1002140000010CED64044C70E97F8C1203E7E4FCEC
:10022400FD740D2DF8E6FF1203C70DBD00010CEDA2
:0502340064044C70ECB5
:0102390022A2
:10000300751100751278750B01750C16E4F511F571
:10001300121202D112030F12037B7D01AF12AE1134
:100023001200EF7D02AF0CAE0B1200EFE50A65087C
:10003300600612037B850A0820B0147F0A1203AC02
:1000430020B00C30B0FDE50AC394045002050A2029
:10005300B1147F0A1203AC20B10C30B1FDE50AD311
:1000630094004002150A20B24A7F0A1203AC20B260
:1000730042E50970047F0180027F008F09740A251D
:100083000CF50CE4350BF50B7D02AF0CFE1200EF03
:1000930020B220E509600B7A017BCF7D037F041238
:1000A3000292E50970EA7A017BD47D037F04120290
:1000B3009280DD30B30302002F7F0A1203AC30B30A
:1000C3000302002F30B3FD74052512F512E4351138
:1000D300F5117D01AF12FE1200EFE50970047F01F7
:0C00E30080027F008F091201E402002F50
:030000000203F602
:0C03F600787FE4F6D8FD75811602000344
:10023A00BC000BBE0029EF8DF084FFADF022E4CCA8
:10024A00F875F008EF2FFFEE33FEEC33FCEE9DEC71
:10025A00984005FCEE9DFE0FD5F0E9E4CEFD22EDB7
:10026A00F8F5F0EE8420D21CFEADF075F008EF2F01
:10027A00FFED33FD4007985006D5F0F222C398FDF2
:05028A000FD5F0EA228F
:00000001FF
